:0E00000002126D1214F112155022220213B3D7
:03001B000214517B
:100023000215317591019002DDE025E0FF9002DCBD
:10003300E033FE74062FF58274003EF583E0FCA3E3
:10004300E0FDECF5D4EDF5DC9002DDE004F07006A4
:100053009002DCE004F09002DCE0B4010CA3E0B415
:100063006807E49002DCF0A3F0E4F59143D140F596
:050073009143D1802241
:10007B000214CB0203C6E86480F8E933E83360115D
:10008B000460F0ED33EC337009E8FCE9FDEAFEEBBC
:10009B00FF220460DED3EB9FEA9EE99DE8C2E78C6A
:1000AB00F0C2F795F0400CE8CCF8E9CDF9EACEFABE
:1000BB00EBCFFB12039185D0F05804700320D5B31E
:1000CB00E80470075002B2D50203D092D5EC04605D
:1000DB00F7E4CCC0E0C398F8603B94186008400D7F
:1000EB00D0E0FB0203A8E4FBFAC9FC8028E830E46B
:1000FB0006E4C9FBE4CAFCE830E305E4C9CACBFC5F
:10010B00E854076010F8C3E913F9EA13FAEB13FB91
:10011B00EC13FCD8F130F52FC3E49CFCEF9BFFEE06
:10012B009AFEED99FDD0E0FBEF4E4D4C701222DBA9
:10013B00030203CDEC2CFCEF33FFEE33FEED33FD6E
:10014B00ED30E7EB0203A8EF2BFFEE3AFEED39FDA6
:10015B00D0E0FB50130BBB00030203D0ED13FDEEFD
:10016B0013FEEF13FFEC13FC0203A8EC4D6011E838
:10017B00497017ED33EC3304600DE4FCFFFEFD22F8
:10018B00E933E8330470F80203C612039158046094
:10019B0009E4CC248150062850090203D0284003DF
:1001AB000203CDC0E0EB4A7044B98006D0E0FB02FD
:1001BB0003BCEF4E701CBD8008EBFFEAFEE9FD802F
:1001CB00EBE98DF0A4FEE5F002025FE9CDF9EAFE62
:1001DB00EBFFEF89F0A4FCE5F0CE89F0A42EFFE451
:1001EB0035F0CD89F0A42DFEE435F08067EF4E702D
:1001FB0005BD80D780C3EF8BF0A4ACF0EE8BF0A4E1
:10020B002CFCE435F0F8EF8AF0A42CE5F038FCE494
:10021B0033CB8DF0A42CFCE5F03BF8EE8AF0A42C4C
:10022B00FCE5F038F8E433CF89F0A42CFCE5F0388A
:10023B00CF3400CE89F0A42FFFE5F03EFEE433C9A6
:10024B008DF0A42EFEE5F039CD8AF0A42FFFE5F05A
:10025B003EFEE43DFD33D0E0FB50070BBB000F022D
:10026B0003D0EC2CFCEF33FFEE33FEED33FD02033A
:10027B00A80203D0EC5D046005E859047003020387
:10028B00C6120391580460F6EC4860F2EC7004FD62
:10029B00FEFF22C860DB2481C85009C3986002505E
:1002AB00060203CD9850CAF582E9294B4A7005AB7B
:1002BB00820203BC75F0007C1A7880C3EF9BEE9A28
:1002CB00ED99400DC3EF9BFFEE9AFEED99FDE842D1
:1002DB00F0DC23ACF0D0E0FFD0E0FED0E0FDAB8251
:1002EB0020E7101BEB60BAEC2CFCEF33FFEE33FE78
:1002FB00ED33FD0203A8E803F830E705C0F075F015
:10030B0000EF2FFFEE33FEED33FD40B830E7C28038
:10031B00AA75F020800E75F010800575F0087D0031
:10032B007E007F003392D530D5031207EEEC3340BD
:10033B0010EF33FFEE33FEED33FDEC33FCD5F0ED78
:10034B0022E5F0247EA2D513CC92E7CDCEFF22ED91
:10035B00D2E7CD33EC3392D524814006E4FFFEFD8A
:10036B00FC22FCE4CFCECDCC24E0501174FF80ED09
:10037B00C3CC13CCCD13CDCE13CECF13CF0470F093
:10038B0030D5DE0207EEE9D2E7C933E833F892D570
:10039B00EDD2E7CD33EC33FC5002B2D522EC30E793
:1003AB00100FBF000C0EBE00080DBD00040BEB6060
:1003BB0014A2D5EB13FCED92E7FD2274FFFCFDFEBE
:1003CB00FF22E480F8A2D574FF13FC7D80E480EF5C
:1003DB00F920E73624F950037907E4F42402FBE50E
:1003EB0082158270021583DBF6E024FB501BE9605B
:1003FB0014E4F0E582158270021583E004F0B40A70
:10040B0008E4F0D9EE7401F00A22C2D522ED33ECE8
:10041B003392D5FA602AB4FF33EDC2E77BFF600657
:10042B007A04793DE4227A04794620D5047A04795A
:10043B0041224E614E002B494E46002D494E46003F
:10044B00E47A08F0A3DAFC7B00740722C083C08235
:10045B00ECC0E0EDC0E0EEC0E0EFC0E0EA75F010FC
:10046B00A4CAABF075F04DA42BFBE435F0FCEA24E9
:10047B0010FAEB34C5FBEC34D9FCEDC2E7FF75F099
:10048B0056A4F42411C5F0F434C58FF0A42AE5F07A
:10049B003BE43CF020E71412059AD0E0FFD0E0FEDD
:1004AB00D0E0FDD0E0FC12027F8014F40412059A18
:1004BB00D0E0FFD0E0FED0E0FDD0E0FC120176D022
:1004CB0082D083E0FAEDD2E7CD33EC332482FBE428
:1004DB00C3CF33CFCE33CECD33CD33DBF37B0775E9
:1004EB00F00A846004F0A31B0AE5F0F0A38FF0740C
:1004FB000AA4FFACF08EF0740AA42CFEACF05001F1
:10050B000C8DF0740AA42CFDE435F0F0A3DBDE7443
:10051B000722C0E0EFFBEEFAEDF9ECF8120176D012
:10052B00E0F5F0EFFBEEFAEDF9ECF812080FA3A3F0
:10053B00A3A3E8C0E0E9C0E0EAC0E0EBC0E0C0F094
:10054B0012017612082BA3A3A3A3120085D0F0D01F
:10055B00E0FBD0E0FAD0E0F9D0E0F8D5F0D4223FC0
:10056B008000004120000042C80000447A00004691
:10057B001C400047C35000497424004B1896804C14
:10058B00BEBC205A0E1BCA6753C21C749DC5AEFB62
:10059B0060065407601C23231205C8EB543860090E
:1005AB001205B41205C3120176ECF8EDF9EEFAEF71
:1005BB00CB22EB1205C380F1543803241C90056A3F
:1005CB00FE93FC0EEE93FD0EEE930ECE93FF22BB2D
:1005DB00010689828A83E0225002E722BBFE02E3F6
:1005EB002289828A83E49322BB010CE58229F5825E
:1005FB00E5833AF583E0225006E92582F8E622BB33
:10060B00FE06E92582F8E222E58229F582E5833AA6
:10061B00F583E49322BB010689828A83F022500280
:10062B00F722BBFE01F322F8BB010DE58229F5820F
:10063B00E5833AF583E8F0225006E92582C8F622D5
:10064B00BBFE05E92582C8F222EF8DF0A4A8F0CFFE
:10065B008CF0A428CE8DF0A42EFE22BC000BBE0085
:10066B0029EF8DF084FFADF022E4CCF875F008EFA4
:10067B002FFFEE33FEEC33FCEE9DEC984005FCEEC9
:10068B009DFE0FD5F0E9E4CEFD22EDF8F5F0EE84FA
:10069B0020D21CFEADF075F008EF2FFFED33FD40BF
:1006AB0007985006D5F0F222C398FD0FD5F0EA2239
:1006BB00A3F8E0C5F025F0F0E582158270021583F2
:1006CB00E0C838F0E822E88FF0A4CC8BF0A42CFC27
:1006DB00E98EF0A42CFC8AF0EDA42CFCEA8EF0A49D
:1006EB00CDA8F08BF0A42DCC3825F0FDE98FF0A42C
:1006FB002CCD35F0FCEB8EF0A4FEA9F0EB8FF0A423
:10070B00CFC5F02ECD39FEE43CFCEAA42DCE35F05E
:10071B00FDE43CFC2275F008758200EF2FFFEE33F1
:10072B00FECD33CDCC33CCC58233C5829BED9AEC59
:10073B0099E58298400CF582EE9BFEED9AFDEC99C3
:10074B00FC0FD5F0D6E4CEFBE4CDFAE4CCF9A882CD
:10075B0022B800C1B90059BA002DEC8BF084CFCE72
:10076B00CDFCE5F0CBF97818EF2FFFEE33FEED3330
:10077B00FDEC33FCEB33FB10D703994004EB99FBF7
:10078B000FD8E5E4F9FA227818EF2FFFEE33FEEDE0
:10079B0033FDEC33FCC933C910D7059BE99A4007ED
:1007AB00EC9BFCE99AF90FD8E0E4C9FAE4CCFB2204
:1007BB0075F010EF2FFFEE33FEED33FDCC33CCC8CD
:1007CB0033C810D7079BEC9AE899400AED9BFDECD8
:1007DB009AFCE899F80FD5F0DAE4CDFBE4CCFAE417
:1007EB00C8F922C3E49FFFE49EFEE49DFDE49CFC5C
:1007FB0022E8600FECC313FCED13FDEE13FEEF13B9
:10080B00FFD8F122E493FC740193FD740293FE7400
:10081B000393FF22E0F8A3E0F9A3E0FAA3E0FB22A5
:10082B00E493F8740193F9740293FA740393FB2223
:10083B00ECF0A3EDF0A3EEF0A3EFF022A8828583FA
:10084B00F0D083D08212085E12085E12085E120886
:10085B005EE473E493A3C583C5F0C583C8C582C8A2
:10086B00F0A3C583C5F0C583C8C582C822F8E0FBD9
:10087B00A3A3E0F925F0F0E582158270021583E061
:10088B00FA38F022EBF0A3EAF0A3E9F022D083D000
:10089B0082F8E4937012740193700DA3A393F87410
:1008AB000193F5828883E4737402936860EFA3A3CA
:1008BB00A380DFD083D082F8E4937012740193701D
:1008CB000DA3A393F8740193F5828883E4737402E8
:1008DB0093B5F0067403936860E9A3A3A3A380D830
:1008EB0041000000410001004202DA00004202DC3C
:1008FB00000062D0000600000000000000000000B5
:10090B0000000000000000000000000000000000DC
:10091B0000000000000000000000000000000000CC
:10092B0000000000000000000000000000000000BC
:10093B0000000000000000000000000000000000AC
:100BCB000000000000004402D600000000440002B8
:100BDB0000000000C100C101C102003A70FA83BCE1
:100BEB00AAE9E43E81E0F8BF9DE9E63F80000039C9
:100BFB00283C1ABB9969663DA335E3BF255DE73FEA
:100C0B00C90FDB418DDBCCC44936EE45C9913FC5DD
:100C1B00B0F83D3F800000C317F534452FFA73C67B
:100C2B000AFDDD120CEF04A2E192051420E01590F1
:100C3B000BE6740412051D8030120CEF30E102B28A
:100C4B000520E0EBA883A9829002E012083B898281
:100C5B008883900BFA740412051D8582F09002E0D4
:100C6B0012081F85F082120176ED4C6007300504E7
:100C7B00EC6480FC22120CEFC0E0A883A9829002E6
:100C8B00E012083B89828883900C1E740312051DA9
:100C9B008582F09002E012081F85F0821201769097
:100CAB0002E0E0CCF0A3E0CDF0A3E0CEF0A3E0CFE8
:100CBB00F0900C0E740312051DD0828582F0900209
:100CCB00E012081F85F082E58230E00712027FB246
:100CDB00058096EFCBFFEECAFEEDC9FDECC8FC120A
:100CEB00027F8085ED33EC547FCC3392052460502A
:100CFB0007D0E0D0E00203C67B837AF97922783EF5
:100D0B00120176EDF933ECF83324815011EFFBEE41
:100D1B00FA12035A12031CECB2E7FC120085ED33F6
:100D2B00EC33602F2403F8C313FCED92E7FDE824AA
:100D3B0081E4501FECF8EDF9EEFAEFFB12035AEFDA
:100D4B0004C2E0FCF582120326ECB2E7FC1200852C
:100D5B00E58203FAED33EC3360071413FCED92E7F5
:100D6B00FDEA229002DE12083B9002E2E024FE60D4
:100D7B005D147003020E6624FD600D147003020EE9
:100D8B006624066003020EEAE4F5917598504389D8
:100D9B0020438780F591438E10F59153C4DF7B1070
:100DAB00FAF9F89002DEE0FCA3E0FDA3E0FEA3E07D
:100DBB00FF12075C9002E3E0F8A3E0F9A3E0FAA3CB
:100DCB00E0FB12075CEFF404F58D43884022E4F559
:100DDB009175985043878053C4F8F59143C4207B99
:100DEB0010FAF9F89002DEE0FCA3E0FDA3E0FEA30D
:100DFB00E0FF12075C9002E3E0F8A3E0F9A3E0FA4E
:100E0B00A3E0FB12075CC3E49FFFE49EFE74019D0D
:100E1B00FDE49CFC78081207FC8FC6E47B10FAF902
:100E2B00F89002DEE0FCA3E0FDA3E0FEA3E0FF12DE
:100E3B00075C9002E3E0F8A3E0F9A3E0FAA3E0FB80
:100E4B0012075CC3E49FFFE49EFE74019DFDE49CCE
:100E5B00FCEFE48FC5F59143C40822E4F59175F8D6
:100E6B005075C4887B10FAF9F89002DEE0FCA3E021
:100E7B00FDA3E0FEA3E0FF12075C9002E3E0F8A302
:100E8B00E0F9A3E0FAA3E0FB12075CC3E49FFFE4E5
:100E9B009EFE74019DFDE49CFC78081207FC8FC636
:100EAB00E47B10FAF9F89002DEE0FCA3E0FDA3E08E
:100EBB00FEA3E0FF12075C9002E3E0F8A3E0F9A3C6
:100ECB00E0FAA3E0FB12075CC3E49FFFE49EFE7411
:100EDB00019DFDE49CFCEFE48FC5F59143C4082212
:100EEB00EF146049146066147003020F79147003D9
:100EFB00020FB724046003020FFE7F0212110D7F55
:100F0B0002121362E4FF12110DE4FF121362E59754
:100F1B0030E003121307E4F591A2AF9204C2AF7550
:100F2B00C7AA75C7555397DFA20492AF227F02124F
:100F3B00110D7F021213627F0112110D7F0112132B
:100F4B0062E59720E003020FFE121307227F0212C5
:100F5B00110D7F02121362E4F591A2AF9204C2AF9E
:100F6B0075C7AA75C75553977FA20492AF227F030B
:100F7B0012110D7F03121362E59730E00312130772
:100F8B00E4F591A2AF9204C2AF75C7AA75C75553CA
:100F9B0097DFA20492AFF591A2AF9204C2AF75C7CF
:100FAB00AA75C75553977FA20492AF227F021211E5
:100FBB000D7F021213627F0412110D7F0412136254
:100FCB00E59730E003121307E4F591A2AF9204C248
:100FDB00AF75C7AA75C7555397DFA20492AFF591AA
:100FEB00A2AF9204C2AF75C7AA75C75553977FA21C
:100FFB000492AF229002DEECF0A3EDF0AB07AA0651
:10100B00A312084700000000EA7017EB24FE7012D1
:10101B0075910253FA0F43FAD075910153B1F7430F
:10102B00B20875910153DF3F75910153DFF843DF30
:10103B00049002E01208470016E3609002E0E0FC27
:10104B00A3E0FDA3E0FEA3E0FFC006C0079002DE15
:10105B00E0FEA3E0FFFBAA06E4F9F8D007D00612E6
:10106B00075C9002E012083B9002E0E0FCA3E0FD7D
:10107B00A3E0FEA3E024FFFFEE34FFFEED34FFFD03
:10108B00EC34FFFC9002E012083B9002E0E0A3E09E
:10109B00A3E0FFA3E09002DACFF0A3EFF07591018C
:1010AB009002E0E0FCA3E0FDA3E0FEA3E0FF7808E4
:1010BB001207FC8FD19002E0E0FCA3E0FDA3E0FE61
:1010CB00A3E0FFE48FD99002DDE025E0FF9002DC86
:1010DB00E033FE74062FF58274003EF583E0FCA32B
:1010EB00E0FDECF5D4EDF5DC9002DDE004F07006EC
:1010FB009002DCE004F0E4F59143D140F59143D14B
:10110B008022EF146037146055146073147003025F
:10111B0011AB240460030211C9E4F591A2AF920450
:10112B00C2AF75C7AA75C755439780A20492AFE5A6
:10113B0096447F647F60030211C980F322E4F5912A
:10114B00A2AF9204C2AF75C7AA75C755439740A209
:10115B000492AFE59644BF64BF706380F622E4F55A
:10116B0091A2AF9204C2AF75C7AA75C7554397201A
:10117B00A20492AFE59644DF64DF704280F622E46E
:10118B00F591A2AF9204C2AF75C7AA75C755439725
:10119B0010A20492AFE59644EF64EF702180F62223
:1011AB00E4F591A2AF9204C2AF75C7AA75C75543B8
:1011BB009708A20492AFE59644F764F760F822E42F
:1011CB009002DEF0A3F09002DEF0A3F09002DEE0DE
:1011DB00FCA3E0FDC39468EC9401400302126CE4A1
:1011EB001203217BD07A0F79497840120176E4FB08
:1011FB00FA7934784312027F120C44E4FBFA7980BB
:10120B00783F120085E4FBFAF9784012027FC004A4
:10121B00C005C006C0079002DAE0FCA3E0FDE412B3
:10122B000321D003D002D001D00012017612035A51
:10123B00AD07AC069002DFE025E0FF9002DEE03365
:10124B00FE74062FF58274003EF583ECF0A3EDF0EF
:10125B009002DFE004F070069002DEE004F0021171
:10126B00D722787FE4F6D8FD9000007FFF7E10E454
:10127B00F0A3DFFCDEFA75810A0212C2021511E43B
:10128B0093A3F8E493A34003F68001F208DFF48004
:10129B0029E493A3F85407240CC8C333C4540F4454
:1012AB0020C8834004F456800146F6DFE4800B012E
:1012BB00020408102040809008EBE47E019360BC90
:1012CB00A3FF543F30E509541FFEE493A360010EC6
:1012DB00CF54C025E060A840B8E493A3FAE493A3ED
:1012EB00F8E493A3C8C582C8CAC583CAF0A3C8C50E
:1012FB0082C8CAC583CADFE9DEE780BEE4F591A2E6
:10130B00AF9204C2AF75C7AA75C755439720A20405
:10131B0092AFE59630E5FBE4F591A2AF9204C2AF34
:10132B0075C7AA75C7555396FBA20492AFF591A248
:10133B00AF9204C2AF75C7AA75C7555396FDA204E9
:10134B0092AFA2AF9204C2AF75C7AA75C755759776
:10135B0034A20492AF0022A2AF9204C2AFEF14608A
:10136B00181460201460281460302404703575C77D
:10137B00AA75C755439606802A75C7AA75C75543E4
:10138B009607801F75C7AA75C7555396F8801475B5
:10139B00C7AA75C755439604800975C7AA75C75563
:1013AB00439602A20492AF22C0E0C0F0C083C08279
:1013BB00C0D075D000C000C004C005C006C00790E7
:1013CB000000E0F58CA3E0F58A5388DF120003D010
:1013DB0007D006D005D004D000D0D0D082D083D097
:1013EB00F0D0E032E49002DEF0A3F0F5915389F0F7
:1013FB00438901F591538EF790000074F8F0A374B4
:10140B0030F0900000E0F58CA3E0F58A43A802D2FF
:10141B00AF4388102275910253F60F43F660759116
:10142B000153C2FD53C3FD9002E27402F0A31208F4
:10143B00470001C2007F007E367D6E7C01120D6E6F
:10144B00439802D20022C0E0C083C082C0D075D0C6
:10145B0000C004C005C006C00753887F120026D009
:10146B0007D006D005D004D0D0D082D083D0E032C4
:10147B007F02120EEB759101E4F5B1F5B2F5B3F500
:10148B00B4F5B5F5B6F5C2F5C3F5B9F5BAF5BDF5D5
:10149B00BE759102F584F58522E49002DEF0A3F08F
:1014AB00FFFEF59153890F438920F591538EEF7F02
:1014BB00A37DA38D8D8D8B43A808D2AF438840228B
:1014CB00C0E0C083C082C09130F80AD2039002E81A
:1014DB00E59AF0C2F830F905200102C2F9D091D09B
:1014EB0082D083D0E032900002E0FCA3E0FDA3E0C9
:1014FB00FEA3E02401FFE43EFEE43DFDE43CFC9052
:10150B00000212083B2212147B12142012000A7DD7
:10151B00C07C5D7F027E00120FFF1211CA1213EF07
:10152B001214A480FE22C0E0C083C082C091309808
:10153B000BD2029002E7E599F05398FED091D0823E
:10154B00D083D0E032900002E0FCA3E0FDA3E0FEEC
:04155B00A3E0FF22E8
:00000001FF
